:04000000803116280D
:100008007E14803140017F08F1008731CF2780318D
:100018008C31292480318B31852371084001FF0000
:100028007E10090080311828563084008B308500F6
:10003800DF308600003087000B308B312D23803174
:10004800FA01FB01EF01C630840000308500193049
:100058008B312723803120308400013085004030E7
:100068008B3127237E1040018B31C12B4001C70003
:1000780040013108B4003008B300B00A0319B10ACE
:1000880033088400340885000008B5003508C60028
:1000980046080319FA2A2530460603197A28470A1A
:1000A8008600870116000104031967284608B30073
:1000B8003308F200470A86008701413F8A00403F23
:1000C8000A0080313C2840014608B30047088600F2
:1000D8008701010886008701330881000130B300D9
:1000E800470886008701330881073C28C401C501F9
:1000F800BB01300884003108850000088B31932348
:100108008031031C76294001C401C5010A30F20080
:100118000030F30040014508F5004408F4008D3133
:100128001E25803173084001C5007208C4003008DC
:100138008400310885000008D03EB300FF30031862
:100148000030B4003308C4073408C53D0130B00797
:100158000030B13D300884003108850000088B313B
:1001680093238031031C76298A283B167629320886
:1001780086008701403F84008501810A0008C2008B
:10018800FF39031D0030C30042084304031DD02873
:100198007B30C2008330C300C001C1014208400760
:1001A80084004308413D850012000319E02801300E
:1001B800C0070030C13DD22845084102031DE6288A
:1001C800440840020318ED284008C4024108C53B12
:1001D800EF28C401C501FF304001C407FF30C53D09
:1001E800440A0319450A03195629470A8600870154
:1001F8001600010403190D292030B3003308F2005A
:10020800470A86008701413F8A00403F0A00813142
:10021800EF2820304001B300470886008701010815
:1002280086008701330881000130B3004708860043
:10023800870133088107EF28470A860087011600DF
:10024800010403193D294208840043088500000879
:10025800B3003308F200470A86008701413F8A004D
:10026800403F0A00813101304001C2070030C33DE0
:10027800562942088400430885000008B30047084F
:100288008600870101088600870133088100013054
:10029800C2070030C33D0130B3004708860087011C
:1002A800330881070130C0020030C13B400A031DFA
:1002B8002029410A03193C28202932088600870191
:1002C800010884008501023081070008B300330863
:1002D800C6004630C2000030C3000130C000003004
:1002E800C100E02840013108B4003008B300B00A6A
:1002F8000319B10A33088400340885000008C600D1
:10030800003A0319FA2A633A03196129073A0319CB
:1003180097290D3A03199729053A0319B9281F3A5D
:100328000319BB286D293B1EA929320886008701BD
:1003380001088400850104308107003FBC00013FAB
:10034800BD00023FBE00033FBD2932088600870179
:1003580001088400850102308107003FB300013F96
:10036800B4003308BC003408BD00890D893B8909F5
:10037800BE00BF00BF1FCF290330B3003308BB0442
:10038800BC09BD09BE09BF09BC0A0319BD0A031986
:10039800BE0A0319BF0AC601C60A0A30460603196F
:1003A800022A4608B300B401B335B40DB335B40D11
:1003B800FE30330784008230343D8500003FB500AD
:1003C800013FB600023FB700033FB80038083F02BC
:1003D800031DF82937083E02031DF82936083D0297
:1003E800031DF82935083C02031C022A0130B3001A
:1003F8003308C6070A304606031DD52944084504B4
:1004080003190E2A3B08033903190E2AFF30C407C3
:10041800FF30C53D4608B300B401B31BB40334082C
:10042800803AB5004508803A3502031D1D2A440864
:10043800330203182A2A40014608B300B401B31B4B
:10044800B4033308C4023408C53B2D2A4001C40153
:10045800C501440845040319602A470A8600870134
:10046800160001040319452A2030B3003308F200AE
:10047800470A86008701413F8A00403F0A008231CF
:10048800572A20304001B300470886008701010839
:1004980086008701330881000130B30047088600D1
:1004A800870133088107FF304001C407FF30C53D8D
:1004B80044084504031D312A3B08033903198A2AD5
:1004C800470A86008701160001040319782A2D308F
:1004D800B3003308F200470A86008701413F8A00CB
:1004E800403F0A0082318A2A2D304001B300470874
:1004F80086008701010886008701330881000130E2
:10050800B300470886008701330881074001460881
:10051800B900BA01B91BBA03FF304001B907FF306F
:10052800BA3D390A03193A0A03193C280030A900D0
:100538000030A8000030A7000A30A6003A0885005D
:10054800390884008435850D8435850DFE3084078F
:100558008230853D003FF200013FF300023FF40086
:10056800033FF5003F08F9003E08F8003D08F70092
:100578003C08F60086314E26803175084001AD00F2
:100588007408AC007308AB007208AA008F31BD274D
:10059800803140012608303EB3003308C600470AC0
:1005A80086008701160001040319E72A4608B300EC
:1005B8003308F200470A86008701413F8A00403F1E
:1005C8000A008231902A40014608B3004708860095
:1005D8008701010886008701330881000130B300D4
:1005E80047088600870133088107902A4001B00137
:1005F800B101080001340034003400340A340034F6
:10060800003400346434003400340034E8340334F3
:10061800003400341034273400340034A0348634D5
:1006280001340034403442340F340034803496347A
:10063800983400340034E134F53405340034CA34D5
:100648009A343B3420342534323464342E342534FF
:1006580031346434253463342534633420346334CA
:100668006E3474343D34253433346C34643400349B
:100678002034203450346C34653461347334653438
:10068800203477346134693474342E342E342E3463
:1006980000345034493443343134363446343134F8
:1006A80038343834353437342034443445344D34D0
:1006B8004F340034523465346134643469346E34F0
:1006C80067342034743465346D3470346434613480
:1006D80074346134003425346C3464342C34253457
:1006E800323464342E3425343134643400342834BC
:1006F8006E3475346C346C342934003425347334D6
:100708000D340A3400348F31042783314001E2006C
:1007180062084101C4008F317D2783314001E20026
:1007280062084101C30010304001A0000030A10060
:10073800410143084001E200E3016208F200630856
:10074800F3000A30F4000030F5008D311E258331A6
:100758007208083E4001A2000030733DA3008631B4
:10076800A126833140012008E40064084101C50046
:1007780026304001C8008330C900410144084001C7
:10078800E200E3016208CA006308CB0041014508A2
:100798004001E400E5016408CC006508CD000230A2
:1007A800CE000030CF004330D0000030D1004101EE
:1007B80055084001D500410154084001D4004101C9
:1007C80053084001D300410152084001D200B23021
:1007D8008D315425833101304001A3000030A4003D
:1007E8000030A500A6008C3105248331B2304001C9
:1007F800A0000030A1008E319826833141014508C0
:100808004001E2006208DC00410144088431882488
:10081800080002304001A700A030A6009230890BE2
:10082800132CA60B132CA70B132C000038304001F7
:10083800A60026084101DE005E088D31942584312A
:1008480039308D319425843114308D31942584319B
:10085800410169080F3970384001A6002608A80030
:1008680028088D3194258431410169084001A6008A
:100878000430A636890B3D2C260803395038A700CA
:100888002708A80041016103031D502C40012808D6
:100898000438A6002608A80040012808A600260853
:1008A8004101DD00400128088D31942584316C30E8
:1008B8008D319425843109304001A7001E30A600EF
:1008C800E430890B652CA60B652CA70B652C000062
:1008D80041015E088D31942584310C308D31942589
:1008E800843106308D31942584318C31EB24843168
:1008F80002304001A0000030A100E230A600260826
:10090800A2008631F32608004101B100A030F200B0
:100918000030F3000030F400F5001130F60000302C
:10092800F7008C31A32484316F304001C800833034
:10093800C90041014D084001CD0041014C0840016A
:10094800CC0041014B084001CB0041014A0840015D
:10095800CA00410131084001DD00DE015D08CE001A
:100968005E08CF005C08DF00E0015F08D000600887
:10097800D100A0308D315425843141014A0840010D
:10098800DD0041014B084001DE0041014C084001F7
:10099800DF0041014D084001E0000430DD35DE0D87
:1009A800DF0DE00D890BD22C6008A3005F08A200C0
:1009B8005E08A1005D08A000A030E1006108A40065
:1009C8001030A5000030A600853172258431013031
:1009D8004101CA070030CB3D0030CC3D0030CD3D51
:1009E80010304A060E3003194B064C044D04031D03
:1009F80008008C31782408008B31D12385310030F0
:100A08008B313A23853103308B317923853140018D
:100A18002008A7002108A8002208A9002308AA0086
:100A28001030AA36A90CA80CA70C890B152D27087D
:100A38008B317923853140012008A7002108A800BF
:100A48002208A9002308AA000830AA36A90CA80C75
:100A5800A70C890B292D27088B3179238531400173
:100A680020088B317923853100304001AE000030F9
:100A7800AD000030AC000030AB002508A700260808
:100A8800A800A901AA012A082E02031D552D29082C
:100A98002D02031D552D28082C02031D552D27084E
:100AA8002B0203186E2D00308B31792385314001DC
:100AB800A7002B082407A800280886008701270814
:100AC80081000130AB070030AC3D0030AD3D003057
:100AD800AE3D412D01308B313A2308008C3164241E
:100AE800853100308B313A23853102308B317923BF
:100AF800853140012008A7002108A8002208A90084
:100B08002308AA001030AA36A90CA80CA70C890B38
:100B1800872D27088B317923853140012008A700CC
:100B28002108A8002208A9002308AA000830AA362C
:100B3800A90CA80CA70C890B9B2D27088B317923AE
:100B48008531400120088B317923853100304001FF
:100B5800AE000030AD000030AC000030AB0025081E
:100B6800A7002608A800A901AA012A082E02031D29
:100B7800C72D29082D02031DC72D28082C02031D87
:100B8800C72D27082B020318DD2D2B082407A700E3
:100B980027088600870101088B31792385310130C8
:100BA8004001AB070030AC3D0030AD3D0030AE3DFC
:100BB800B32D01308B313A2385318C315024080014
:100BC80000304001A300A4000030A500A6008C312D
:100BD800052485315E304001A0008330A1008E31AC
:100BE8009826853101304001A3000030A400003070
:100BF800A500A6008C31052485313C304001A000B9
:100C08008330A1008E31982685314001EB01EC013B
:100C18006C08803AEA0080306A02031D152EFF3006
:100C28006B020318362E40016B08D0006C08D10007
:100C3800890D893B8909D200D30087314127853145
:100C48004001D11B362E0130EB070030EC3D6C081B
:100C5800803AEA0080306A02031D342EFF306B02AE
:100C6800031C172E8C31EB2485318C317824853187
:100C780000304001A300A4000030A500A6008C317C
:100C8800052485314D304001A0008330A1008E310C
:100C98009826080000304001A4000030A30000306E
:100CA800A2000030A10075087404730472040319CB
:100CB800982EA501A50AF51B6D2E0130F235F30D0E
:100CC800F40DF50D890B622E0130A0002008A50750
:100CD8005F2E0130A135A20DA30DA40D890B6E2E38
:100CE80075087902031D822E74087802031D822E6E
:100CF80073087702031D822E72087602031C8D2E5C
:100D08007208F6027308F73B7408F83B7508F93B5C
:100D180021140130F536F40CF30CF20C890B8E2EED
:100D28000130A502031D6D2E2408F5002308F400E8
:100D38002208F3002108F20008004001A501A11FC4
:100D4800AC2EA009A109A00A0319A10AA501A50AA8
:100D5800A31FB72EA209A309A20A0319A30A0130E7
:100D6800F8007808A506A601A701200821040319A0
:100D7800E62EA401A40AA11BCB2E0130A035A10D9B
:100D8800890BC22E0130F8007808A407BF2E013065
:100D9800A635A70D890BCC2E21082302031DD62EBC
:100DA80020082202031CDD2E2008A2022108A33BF2
:100DB80026140130A136A00C890BDE2E0130A402C6
:100DC800031DCB2E25080319EE2EA609A709A60A8E
:100DD8000319A70A2708A1002608A00008003E302A
:100DE800F3000030F4000030F500F6008E3166267E
:100DF800863174084001A4007308A3002308240462
:100E0800031D3E2F80308B31F323863140012008AB
:100E1800F9000230F935FF3E031D0E2F79354038B1
:100E28008B31F32386314530890B182F0000403071
:100E38008B31F32386314001A501073025020318C1
:100E48003E2F22088600870101088B31F323863163
:100E58000130F90079084001A2074530890B322F8B
:100E680000000130F90079084001A5070730250284
:100E7800031C252F8B316D2308005930F2000030F8
:100E8800F3000030F400F5001130F6000030F700F0
:100E98008C31A324873140015008D4005108D50073
:100EA8005208D6005308D7000430D435D50DD60DD6
:100EB800D70D890B592F5708A3005608A2005508CB
:100EC800A1005408A0005930D8005808A4001030D8
:100ED800A5000030A600853100258731E0304001AB
:100EE8005902031C7C2FFF30D000FF30D1000800CE
:100EF8008230C8008330C9005930D4005408CA0071
:100F08008C318D244001D001D10108003930F30023
:100F18000030F4000030F500F6008E316626873187
:100F280074084001A1007308A00020082104031DD3
:100F3800A52F03308B31F32387318C308B31F3238A
:100F480087318B316D2387314230890BA92F0032CD
:100F58003930F3000030F4000030F500F6008E312F
:100F68006626873174084001A1007308A000200894
:100F78002104031DC72F04308B31F323873105303B
:100F88008B31F32387318B316D2387314230890BC5
:100F9800CB2F003208004E018F1E080042011908AD
:100FA800F0007008FA000A307A060319DF2F0D30B6
:100FB8007A06031DEF2F40016F08031908006F0818
:100FC800203E86000130870081014101DA01DA0AFA
:100FD8004001EF0108007A08F00040016F08203E48
:100FE800860001308700700881000130F000700829
:040FF800EF070800F7
:101642008B316123F2007208F3000800640080010C
:101652000131890B282B0034FE0012001E00FE0B04
:101662002E2B00344E010F1E332B720842019A00BA
:101672000800F200720C4001031C17100318171423
:101682000800053043010F05F20011081F397204EA
:1016920003190800422B00304101D9000030D80064
:1016A2000030D7000030D600080000344034013446
:1016B200073405340734003400340034003428344D
:1016C2004E01991E991641015A08031D6A2B0030DA
:1016D2000800DA0120300800FB018B3142238B31F4
:1016E2007B0303190800430111158B3142230800C3
:1016F200F300730843019600191C7D2B1608F200B3
:101702007208F400740808004E010F180F108F1CA5
:101712008D2BFB01FB0A8F100F190F118F1D080073
:101722008F110800F300F2013A30730203189F2B65
:1017320030307302031C9F2BF201F20A720C080074
:1017420040019E171E121F081F3940389F001F12AA
:101752001F08F03905389F009C014E0196160800BB
:101762004101DA012030F2000130F3000030F400D0
:10177200F5004030F6000030F7008C31A324080059
:101782008B31E2238B318B314C238B318B31B12363
:101792008B318E3139268B318D31BA258B31CD2B60
:1017A2008C313C248B31F7007708F8006830F70061
:1017B200E430890BDA2BF70BDA2B0032781C0800A5
:1017C200D12B8D3104258B318B31A1238B318D317E
:1017D20039258B318C31D3248B318C3117240B1763
:1017E2008B170800F300FB018B3142238B317B0303
:1017F20003190800730843018C000F19FE2B7B03A9
:101802000319080011080800410160084001A800FE
:1018120041015F084001A7002308273E8600870197
:101822000108250780388D319425080016307E0185
:10183200990017309B0043011A12191799139A162F
:101842001A08F03902389A004E0119150F110800D2
:101852004E018C1E080001304101D6070030D73DF1
:101862000030D83D0030D93DDC01DC0A40019C014A
:101872004E018C12080000308B313A238C31053036
:101882008B3179238C3100308B3179238C31F50007
:101892007508F60001308B313A23760808008B3147
:1018A200D1238C3100308B313A238C3104308B318F
:1018B20079238C3101308B313A238C318B31D12316
:1018C200400197120800400197168B31D1238C31C9
:1018D20000308B313A238C3106308B3179238C31B5
:1018E20001308B313A238C318B31D1230800003007
:1018F2004101CD000030CC000030CB000030CA00E6
:1019020000304001A3000030A2000030A1000030EE
:10191200A0008F313E2708004001CD013330CE00B8
:101922000B30CF004A30CB004B08CC004908B10045
:101932004808B0004C30CB004B08B2004D3080312B
:101942003A2008007308F9007208F8000130F60224
:101952000030F73B760A0319770A03190800780862
:10196200860079088700740881000130F80700308A
:10197200F93DA72C410149084804470446040319CC
:1019820008000130F2000030F3000030F4000030B3
:10199200F5007208C6027308C73B7408C83B750895
:1019A200C93B080010307E01A60017307D01CB0034
:1019B20042019E161E121E131E109D171D161D1388
:1019C2001D101E119F1500309C0067309B004E01B8
:1019D2008F12080001308D3194258C310C30F900C2
:1019E2006C30890BF22CF90BF22C003202308D3163
:1019F20094258C310C30F9006C30890BFE2CF90BDC
:101A0200FE2C003208007E01B801400191018C01D8
:101A12007E01B901C3011430400192008D017E01A3
:101A2200C401CE019830400193007E01CF014001F4
:101A32008E0190017E01E5010800F601F701721C9A
:101A4200262D7408F6077508F73D0130F435F50DBB
:101A5200890B272D0130F336F20C890B2C2D7208DD
:101A62007304031D202D7708F3007608F2000800A6
:101A720014307E01A30013307D01C50015307E01B4
:101A8200A40014307D01C60043018F179016100880
:101A9200F039083890004F308D004E011914991416
:101AA2000F108F1008004001D7005708D6005608C3
:101AB200D900DA01DB014A30D6005608D8004908BD
:101AC200B1004808B0005830D6005608B20059306C
:101AD20080313A20400159088600870181010800BF
:101AE20041014908480447044604031D08008E3199
:101AF2000D268D3140016D086E0403198A2D0030C8
:101B02004101C9000030C8000130C700E830C600FA
:101B1200080000304101C9000030C8000030C70091
:101B22000030C60008004001A0003E30F300003043
:101B3200F4000030F500F6008E3166268D3174080F
:101B42004001A2007308A10021082204031DB22D46
:101B520080308B31F3238D31400120088B31F32308
:101B62008D318B316D238D314530890BB62D0000BF
:101B720008008B3121238D3141015C03031DC92DE6
:101B82008E31CD268D318C31BB248D314101DC016A
:101B92005908031DD52D5808031DD52DD2305602E4
:101BA2000330573B031CE02D0030D9000030D80031
:101BB2000030D7000030D600833187238D318D313C
:101BC20071250800FB018B3142238D317B03031DFC
:101BD200EF2DFF30F300FF30F400080043019115B0
:101BE2009119F12D7B03031DFB2DFF30F300FF3014
:101BF200F40008000C08F500F6017508F7007608F5
:101C0200F800730C031C9112031891161116780830
:101C1200F4007708F300080001304101A000003011
:101C2200A10040019019272E00304101D50000305B
:101C3200D4000030D300B430D2000030D1000030E4
:101C4200D0000330CF00D130CE00302E0D1A2D2E11
:101C52008531E4258E31302E4101A001A1014101DF
:101C620021084001EE00410120084001ED0008007A
:101C720000304101C9000030C8000030C700003008
:101C8200C60087318A278E3184310D248E3100308F
:101C92004101D5000030D4000030D3000030D20022
:101CA2008C3178248E3100304001A300A400003032
:101CB200A500A6008C3105248E314D304001A000D4
:101CC2008330A1008E3198260800FB018B3142231C
:101CD2008E317B03031D722EFF30F300FF30F400C0
:101CE2000800430111148B3142238E317B03031D03
:101CF2007F2EFF30F300FF30F400080073357507C4
:101D020043018C000F19832E7B03031D8D2EFF30A0
:101D1200F300FF30F4000800110E890C890C013920
:101D2200F700F8017708F3007808F40008003E3065
:101D3200F3000030F4000030F500F6008E31662624
:101D42008E3174084001A3007308A2002208230404
:101D5200031DCA2E40308B31F3238E3140012008FF
:101D620084002108850012000319CA2E40012008B0
:101D720084002108850000088B31F3238E31013065
:101D82004001A0070030A13D4530890BC62E00005E
:101D9200AF2E8B316D2308004101510850044F04CE
:101DA2004E040319E52E0130F2000030F30000303A
:101DB200F4000030F5007208CE027308CF3B7408BD
:101DC200D03B7508D13B0800550854045304520413
:101DD200031908000130F2000030F3000030F40073
:101DE2000030F5007208D2027308D33B7408D43B6A
:101DF2007508D53B0030D1000030D0000330CF0051
:101E0200D130CE0008004001A2013930F300003089
:101E1200F4000030F500F6008E3166268F3174082A
:101E22004001A1007308A00020082104031D342FE3
:101E320000308B31F3238F313930F3000030F4005E
:101E42000130F5000030F6008E3166268F31013008
:101E5200F3000030F4008D31E3258F317308F9006F
:101E620079084001A2008B316D238F314230890BFA
:101E7200382F00324001220808008C3164248F314F
:101E820000308B313A238F31D8308B3179238F3127
:101E920040012008A4002108A5002208A60023086A
:101EA200A7001030A736A60CA50CA40C890B532F43
:101EB20024088B3179238F3140012008A4002108A6
:101EC200A5002208A6002308A7000830A736A60C02
:101ED200A50CA40C890B672F24088B3179238F3131
:101EE200400120088B3179238F3101308B313A2325
:101EF2008F318C31502408004001A2013930F300A7
:101F02000030F4000030F500F6008E3166268F3185
:101F120074084001A1007308A00020082104031DD9
:101F2200AD2F02308B31F3238F313930F300003083
:101F3200F4000130F5000030F6008E3166268F3154
:101F42000130F3000030F4008D31E3258F31730846
:101F5200F90079084001A2008B316D238F314230A4
:101F6200890BB12F003240012208F9000430F93602
:101F7200890BB82F79080800400129082804270492
:101F820026040319F72FAF01AF0AA91BD42F013082
:101F9200A635A70DA80DA90D890BC92F0130AE00DA
:101FA2002E08AF07C62F29082D02031DE22F28088D
:101FB2002C02031DE22F27082B02031DE22F260805
:101FC2002A02031CEC2F2608AA022708AB3B28088A
:101FD200AC3B2908AD3B0130A936A80CA70CA60CD6
:101FE200890BED2F0130AF02031DD42F2D08A9005C
:0E1FF2002C08A8002B08A7002A08A60008004B
:020000040001F9
:0A000E008F17FC3F9F3FFF1FFF3FCD
:00000001FF
